:020000020000FC
:040000000C947200EA
:040064000C94DA001E
:1000E4000FEF04B908E00EBF0FEF0DBF52D07894A4
:1000F4000AE5009301010FEF05B90E9412010027E0
:1001040005B90E94E50010910001113619F013366B
:10011400C1F03EC0209101012395243B49F1209375
:1001240001011FEF15B92F930E9400012F910E9426
:10013400F500112715B90E94E5001127109300015D
:1001440027C0209101012A952030D1F0209301018C
:100154001FEF15B92F930E9400012F910E94F50003
:10016400112715B90E94E50011271093000110C052
:1001740020910101243B61F424EB2093010108C088
:1001840020910101203021F420E02093010100C0DE
:10019400BACF0F9307E60093C40000E00093C500B4
:1001A40000E90093C10006E00093C2000F91089596
:1001B4000F930FB70F930091C600009300010F91A6
:1001C4000FBF0F9118952F933F934F9322E03BE875
:1001D4004CEC4A95F1F73A95E1F72A95D1F74F910E
:1001E4003F912F9108952F933F932BE033E63A9557
:1001F400F1F72A95E1F73F912F910895DF93CF937B
:10020400CDB7DEB70F922F930D8025E32A95F1F732
:1002140000000A94D1F72F910F90CF91DF910895A8
:100224002F933F9320E23AE23A95F1F72A95E1F7CA
:0802340000003F912F91089595
:00000001FF
